{
  "contractName": "KlasssToken",
  "abi": [
    {
      "inputs": [
        {
          "internalType": "uint256",
          "name": "_initialSupply",
          "type": "uint256"
        }
      ],
      "stateMutability": "nonpayable",
      "type": "constructor"
    },
    {
      "anonymous": false,
      "inputs": [
        {
          "indexed": false,
          "internalType": "address",
          "name": "account",
          "type": "address"
        },
        {
          "indexed": false,
          "internalType": "address",
          "name": "token",
          "type": "address"
        },
        {
          "indexed": false,
          "internalType": "uint256",
          "name": "amount",
          "type": "uint256"
        },
        {
          "indexed": false,
          "internalType": "uint256",
          "name": "rate",
          "type": "uint256"
        }
      ],
      "name": "TokensPurchsed",
      "type": "event"
    },
    {
      "inputs": [
        {
          "internalType": "address",
          "name": "",
          "type": "address"
        }
      ],
      "name": "balanceOf",
      "outputs": [
        {
          "internalType": "uint256",
          "name": "",
          "type": "uint256"
        }
      ],
      "stateMutability": "view",
      "type": "function",
      "constant": true
    },
    {
      "inputs": [],
      "name": "name",
      "outputs": [
        {
          "internalType": "string",
          "name": "",
          "type": "string"
        }
      ],
      "stateMutability": "view",
      "type": "function",
      "constant": true
    },
    {
      "inputs": [],
      "name": "rate",
      "outputs": [
        {
          "internalType": "uint256",
          "name": "",
          "type": "uint256"
        }
      ],
      "stateMutability": "view",
      "type": "function",
      "constant": true
    },
    {
      "inputs": [],
      "name": "standard",
      "outputs": [
        {
          "internalType": "string",
          "name": "",
          "type": "string"
        }
      ],
      "stateMutability": "view",
      "type": "function",
      "constant": true
    },
    {
      "inputs": [],
      "name": "symbol",
      "outputs": [
        {
          "internalType": "string",
          "name": "",
          "type": "string"
        }
      ],
      "stateMutability": "view",
      "type": "function",
      "constant": true
    },
    {
      "inputs": [],
      "name": "token",
      "outputs": [
        {
          "internalType": "contract Token",
          "name": "",
          "type": "address"
        }
      ],
      "stateMutability": "view",
      "type": "function",
      "constant": true
    },
    {
      "inputs": [],
      "name": "totalSupply",
      "outputs": [
        {
          "internalType": "uint256",
          "name": "",
          "type": "uint256"
        }
      ],
      "stateMutability": "view",
      "type": "function",
      "constant": true
    },
    {
      "inputs": [
        {
          "internalType": "address",
          "name": "_receiver",
          "type": "address"
        }
      ],
      "name": "buyTokens",
      "outputs": [],
      "stateMutability": "payable",
      "type": "function",
      "payable": true
    }
  ],
  "bytecode": "0x60806040526040518060400160405280600c81526020017f4b6c6173737320546f6b656e0000000000000000000000000000000000000000815250600090805190602001906200005192919062000179565b506040518060400160405280600281526020017f4b54000000000000000000000000000000000000000000000000000000000000815250600190805190602001906200009f92919062000179565b506040518060400160405280601181526020017f4b6c6173737320546f6b656e2076312e3000000000000000000000000000000081525060029080519060200190620000ed92919062000179565b506103e86005553480156200010157600080fd5b5060405162000d7a38038062000d7a833981810160405281019062000127919062000240565b80600660003373ffffffffffffffffffffffffffffffffffffffff1673ffffffffffffffffffffffffffffffffffffffff168152602001908152602001600020819055508060038190555050620002f5565b828054620001879062000276565b90600052602060002090601f016020900481019282620001ab5760008555620001f7565b82601f10620001c657805160ff1916838001178555620001f7565b82800160010185558215620001f7579182015b82811115620001f6578251825591602001919060010190620001d9565b5b5090506200020691906200020a565b5090565b5b80821115620002255760008160009055506001016200020b565b5090565b6000815190506200023a81620002db565b92915050565b6000602082840312156200025357600080fd5b6000620002638482850162000229565b91505092915050565b6000819050919050565b600060028204905060018216806200028f57607f821691505b60208210811415620002a657620002a5620002ac565b5b50919050565b7f4e487b7100000000000000000000000000000000000000000000000000000000600052602260045260246000fd5b620002e6816200026c565b8114620002f257600080fd5b50565b610a7580620003056000396000f3fe60806040526004361061007b5760003560e01c806370a082311161004e57806370a082311461012c57806395d89b4114610169578063ec8ac4d814610194578063fc0c546a146101b05761007b565b806306fdde031461008057806318160ddd146100ab5780632c4e722e146100d65780635a3b7e4214610101575b600080fd5b34801561008c57600080fd5b506100956101db565b6040516100a291906107e7565b60405180910390f35b3480156100b757600080fd5b506100c0610269565b6040516100cd9190610829565b60405180910390f35b3480156100e257600080fd5b506100eb61026f565b6040516100f89190610829565b60405180910390f35b34801561010d57600080fd5b50610116610275565b60405161012391906107e7565b60405180910390f35b34801561013857600080fd5b50610153600480360381019061014e9190610622565b610303565b6040516101609190610829565b60405180910390f35b34801561017557600080fd5b5061017e61031b565b60405161018b91906107e7565b60405180910390f35b6101ae60048036038101906101a99190610622565b6103a9565b005b3480156101bc57600080fd5b506101c56105bd565b6040516101d291906107cc565b60405180910390f35b600080546101e890610959565b80601f016020809104026020016040519081016040528092919081815260200182805461021490610959565b80156102615780601f1061023657610100808354040283529160200191610261565b820191906000526020600020905b81548152906001019060200180831161024457829003601f168201915b505050505081565b60035481565b60055481565b6002805461028290610959565b80601f01602080910402602001604051908101604052809291908181526020018280546102ae90610959565b80156102fb5780601f106102d0576101008083540402835291602001916102fb565b820191906000526020600020905b8154815290600101906020018083116102de57829003601f168201915b505050505081565b60066020528060005260406000206000915090505481565b6001805461032890610959565b80601f016020809104026020016040519081016040528092919081815260200182805461035490610959565b80156103a15780601f10610376576101008083540402835291602001916103a1565b820191906000526020600020905b81548152906001019060200180831161038457829003601f168201915b505050505081565b6000600554346103b99190610860565b905080600460009054906101000a900473ffffffffffffffffffffffffffffffffffffffff1673ffffffffffffffffffffffffffffffffffffffff166370a08231306040518263ffffffff1660e01b81526004016104179190610743565b60206040518083038186803b15801561042f57600080fd5b505afa158015610443573d6000803e3d6000fd5b505050506040513d601f19601f820116820180604052508101906104679190610674565b10156104a8576040517f08c379a000000000000000000000000000000000000000000000000000000000815260040161049f90610809565b60405180910390fd5b600460009054906101000a900473ffffffffffffffffffffffffffffffffffffffff1673ffffffffffffffffffffffffffffffffffffffff1663a9059cbb83836040518363ffffffff1660e01b81526004016105059291906107a3565b602060405180830381600087803b15801561051f57600080fd5b505af1158015610533573d6000803e3d6000fd5b505050506040513d601f19601f82011682018060405250810190610557919061064b565b507f9f361160de68209f6b73fb152dbdc3082a17dda606f26fffac06f1d4e371e97182600460009054906101000a900473ffffffffffffffffffffffffffffffffffffffff16836005546040516105b1949392919061075e565b60405180910390a15050565b600460009054906101000a900473ffffffffffffffffffffffffffffffffffffffff1681565b6000813590506105f2816109fa565b92915050565b60008151905061060781610a11565b92915050565b60008151905061061c81610a28565b92915050565b60006020828403121561063457600080fd5b6000610642848285016105e3565b91505092915050565b60006020828403121561065d57600080fd5b600061066b848285016105f8565b91505092915050565b60006020828403121561068657600080fd5b60006106948482850161060d565b91505092915050565b6106a6816108ba565b82525050565b6106b581610902565b82525050565b60006106c682610844565b6106d0818561084f565b93506106e0818560208601610926565b6106e9816109e9565b840191505092915050565b600061070160148361084f565b91507f496e73756666696369656e742062616c616e63650000000000000000000000006000830152602082019050919050565b61073d816108f8565b82525050565b6000602082019050610758600083018461069d565b92915050565b6000608082019050610773600083018761069d565b610780602083018661069d565b61078d6040830185610734565b61079a6060830184610734565b95945050505050565b60006040820190506107b8600083018561069d565b6107c56020830184610734565b9392505050565b60006020820190506107e160008301846106ac565b92915050565b6000602082019050818103600083015261080181846106bb565b905092915050565b60006020820190508181036000830152610822816106f4565b9050919050565b600060208201905061083e6000830184610734565b92915050565b600081519050919050565b600082825260208201905092915050565b600061086b826108f8565b9150610876836108f8565b9250817fffffffffffffffffffffffffffffffffffffffffffffffffffffffffffffffff04831182151516156108af576108ae61098b565b5b828202905092915050565b60006108c5826108d8565b9050919050565b60008115159050919050565b600073ffffffffffffffffffffffffffffffffffffffff82169050919050565b6000819050919050565b600061090d82610914565b9050919050565b600061091f826108d8565b9050919050565b60005b83811015610944578082015181840152602081019050610929565b83811115610953576000848401525b50505050565b6000600282049050600182168061097157607f821691505b60208210811415610985576109846109ba565b5b50919050565b7f4e487b7100000000000000000000000000000000000000000000000000000000600052601160045260246000fd5b7f4e487b7100000000000000000000000000000000000000000000000000000000600052602260045260246000fd5b6000601f19601f8301169050919050565b610a03816108ba565b8114610a0e57600080fd5b50565b610a1a816108cc565b8114610a2557600080fd5b50565b610a31816108f8565b8114610a3c57600080fd5b5056fea264697066735822122094b76d8e0d08b8cf46eb06c42a654c7352806a07f7eb27f56b7744b8e74d8c9364736f6c63430008000033",
  "immutableReferences": {},
  "source": "// SPDX-License-Identifier: MIT\r\npragma solidity >=0.4.22 <0.9.0;\r\nimport \"./Token.sol\";\r\n\r\ncontract KlasssToken {\r\n\r\n  string public name = \"Klasss Token\";\r\n  string public symbol = \"KT\";\r\n  string public standard = \"Klasss Token v1.0\";\r\n  uint256 public totalSupply;\r\n  Token public token;\r\n\tuint public rate = 1000;\r\n  mapping(address => uint256) public balanceOf;\r\n\r\n  event TokensPurchsed(\r\n\t\taddress account,\r\n\t\taddress token,\r\n\t\tuint amount,\r\n\t\tuint rate\r\n\t\t);\r\n\r\n  constructor (uint256 _initialSupply) public {\r\n    balanceOf[msg.sender] = _initialSupply;\r\n    totalSupply = _initialSupply;\r\n  }\r\n  \r\n\tfunction buyTokens(address _receiver) public payable {\r\n\t\t// Redemption rate = # of tokens they receive for one ether\r\n\t\t// Amount of Ethereum * Redemption rate\r\n\t\t//Calculate the number of tokens to buy;\r\n\t\tuint tokenAmount = msg.value * rate;\r\n\r\n\t\t//Require that ethSwap has enough tokens\r\n\t\trequire(token.balanceOf(address(this)) >= tokenAmount, \"Insufficient balance\");\r\n\t\t\r\n\t\t// Transfer tokens to the user\r\n\t\ttoken.transfer(_receiver, tokenAmount);\r\n\r\n\t\t// Emit an event\r\n\t\temit TokensPurchsed(_receiver, address(token), tokenAmount, rate);\r\n\t}\r\n}",
  "sourcePath": "C:\\Users\\CCL\\Desktop\\KlassToken\\contracts\\KlasssToken.sol",
  "compiler": {
    "name": "solc",
    "version": "0.8.0+commit.c7dfd78e.Emscripten.clang"
  },
  "schemaVersion": "3.4.5",
  "updatedAt": "2022-03-18T19:01:05.978Z",
  "networkType": "ethereum",
  "devdoc": {
    "kind": "dev",
    "methods": {},
    "version": 1
  },
  "userdoc": {
    "kind": "user",
    "methods": {},
    "version": 1
  }
}